:020000040800F2
:1000000000060020010100086B1D0008371C0008D5
:10001000691D000897060008FD2100080000000087
:100020000000000000000000000000006F1D00083C
:10003000DB060008000000006D1D0008711D0008AF
:100040001B0100081B0100081B0100081B01000820
:100050001B0100081B0100081B0100081B01000810
:100060001B0100081B0100081B0100081B01000800
:1000700099060008A50600081B0100081B010008DE
:100080001B0100081B0100081B0100081B010008E0
:100090001B0100081B0100081B0100081B010008D0
:1000A0001B0100081B0100081B0100081B010008C0
:1000B0000D1E00081B0100081B0100081B010008A1
:1000C0001B0100081B0100081B0100081B010008A0
:1000D0001B0100081B0100081B0100081B01000890
:1000E0001B0100081B0100081B010008DFF80CD0F1
:1000F00000F0B0FA004800478922000800060020FE
:100100000648804706480047FEE7FEE7FEE7FEE7B1
:10011000FEE7FEE7FEE7FEE7FEE7FEE7C51D000897
:10012000ED000008202A04DB203A21FA02F0002129
:10013000704721FA02F3D040C2F1200291400843F7
:1001400019467047D2B201E000F8012B491EFBD2DC
:1001500070470022F6E710B513460A4604461946D2
:10016000FFF7F0FF204610BDF0B480EA0102D40F83
:100170004200B2EB410F02D20246084611464A0045
:1001800042D0C30DDDB2C1F3C752AD1A202D35DA0E
:10019000C1F3160141F4000204B15242C5F1200638
:1001A00002FA06F12A411044B3EBD05F23D0C4B168
:1001B000012DA0EBC35009DCF0BC4FF0004202EA75
:1001C000C352DBB200F5000000F0B9B9400000F105
:1001D000807000EBC350A0F1807040EAD1704900FC
:1001E00009E0490841EAC071A0EBC35000F50000E6
:1001F000400800EBC350F0BC00F098B96142012206
:1002000002EB4101001BF6E7F0BC704781F00041B2
:10021000AAE780F00040A7E780EA010210B502F0EB
:100220000043400022D04A001FD0010E01EB1261B2
:10023000C0F35600C2F3560240F4000042F400023C
:10024000A0FB022000047F39140400D0401C50EAB7
:10025000124001D44000491EC2B20C0604EBD0107B
:10026000401C4008802A02D003E0002010BD20F08E
:100270000100002900DA0020184310BD420005D01B
:10028000C0F3C7525242914201DC0020704700EB9C
:10029000C15070472DE9FE4F81EA030404F0004489
:1002A00021F0004100944FF0000B23F0004350EA8E
:1002B00001045ED052EA03045BD0C3F30A54C1F3D5
:1002C0000A552C44A4F2F3340194A0FB0254C1F368
:1002D000130141F48011C3F3130343F4801301FBB2
:1002E000024400FB034E840A970A44EA815447EA19
:1002F0008357A4FB076802958D0A05FB07854FEA23
:10030000932C04FB0C542705029D4FEA065847EA3C
:100310001637B5EB08056EEB070C870E920E47EA11
:10032000811742EA8312A7FB0201B6EB0B0164EBD3
:1003300000042B0D43EA0C335E1844EB1C50DA46E4
:100340005146E7FB0201C5F313044FEA0B3343EABE
:1003500014534FEA0432019C43EA0603A4F10C044F
:100360000294009CCDE900B400F026F903B0BDE88A
:10037000F08F00200146F9E72DE9F04D81EA0304F2
:1003800004F0004B21F0004514464FF0000A23F022
:10039000004150EA050220D054EA01021DD0C5F305
:1003A0000A570246C5F31303C1F31300C1F30A56FB
:1003B00040F4801543F48013A7EB0608101BD646C3
:1003C00008F2FD3873EB050002D308F1010801E0E3
:1003D00092185B41B8F1000F03DA00200146BDE836
:1003E000F08D00204FF48011064684460EE0171B66
:1003F00073EB050705D3121B63EB050306434CEAB9
:10040000010C49084FEA300092185B4150EA01079D
:10041000EDD152EA030012D082EA040083EA05011A
:10042000084305D0101BAB4106D20122002306E091
:1004300000224FF0004302E06FF0010253101AEB6C
:1004400006004CEB085110EB0A0041EB0B01BDE834
:10045000F04D00F0A2B870B521F0004303430CD07A
:10046000C1F30A550024D5EB040564EB0403D61749
:10047000AD1AB34102DB0020014670BD201841EBEC
:10048000025170BD0EB5C10F80EAE0700844CA0782
:10049000002140F233438DE80E000A460B4600F07F
:1004A0008BF803B000BD20F00040C10DC0F3160072
:1004B00040F400007F2901DA00207047962903DC10
:1004C000C1F19601C840704796398840704700F0E6
:1004D000004230F000400AD0C10D01F56071C0F358
:1004E000160042EA0151C20840071143704700203C
:1004F0000146704701F0004330B421F0004150EA5A
:10050000010206D00A0DA2F56072C1F31301002AA0
:1005100002DC30BC00207047440F44EAC104C10033
:10052000E01830BC00EBC250AFF300800029A8BF38
:100530007047401C490008BF20F00100704710B40C
:10054000B0FA80FC00FA0CF050EA010404BF10BCC1
:10055000704749B1CCF1200421FA04F411FA0CF1EE
:1005600018BF012121430843A3EB0C01CB1D4FEA27
:1005700000614FEA102042BF002010BC704700EB22
:10058000C35010440029A4BF10BC7047401C490050
:1005900008BF20F0010010BC704710B5141E73F1A5
:1005A000000408DA401C41F1000192185B411A4333
:1005B00001D120F0010010BD2DE9F04D92469B467F
:1005C00011B1B1FA81F202E0B0FA80F22032904625
:1005D00000F052F804460F4640EA0A0041EA0B01D7
:1005E00053465A46084313D0114653EA010019D026
:1005F000C8F140025046FFF795FD05460E465046AD
:100600005946424600F038F8084305D0012004E07E
:1006100020463946BDE8F08D0020054346EAE076E5
:100620002C4337430A986305E40AA0EB0800002234
:10063000FD0A44EA47540A3002D500200146E9E7A2
:10064000010510196941DDE9084500196941BDE856
:10065000F04DA2E7064C074D06E0E06840F00103CC
:1006600094E8070098471034AC42F6D3FFF742FDF8
:1006700084230008A4230008202A04DB203A00FA7F
:1006800002F1002070479140C2F1200320FA03F3E9
:10069000194390407047FEE7014800F021B8000080
:1006A000B8010020014800F01BB8000074010020D0
:1006B00030B590F840500124AC40C56B6C600468C4
:1006C00063604368102B036803D099600068C260C0
:1006D00030BD9A600068C16030BD7047704700004F
:1006E0002DE9F05FC16B0C6801680B68D0F840C061
:1006F000042202FA0CF2494DDFF824A1494E4A4F78
:10070000DFF828B1DFF828E122422CD05A072AD599
:100710000A68920603D40A6822F004020A6001689B
:10072000A94201D1042219E0514501D1402215E02E
:10073000B14202D14FF4806210E0B94202D14FF4CD
:1007400080420BE0594502D14FF4802206E071450A
:1007500002D14FF4800201E04FF080622F49083946
:100760004A60C16A3BE04FF0020808FA0CF818EA48
:10077000040F4FF000094FF0010235D05FEA837893
:1007800032D50B689B0605D40B6823F00A030B6077
:1007900080F821200168A94201D1022219E05145C7
:1007A00001D1202215E0B14202D14FF4007210E0D5
:1007B000B94202D14FF400520BE0594502D14FF437
:1007C000003206E0714502D14FF4001201E04FF013
:1007D0000072124908394A6080F82090816A002925
:1007E0001AD0BDE8F05F0847082505FA0CF5254248
:1007F00012D01B0710D50B6823F00E030B6090F886
:100800004010C36B02FA01F15960826380F8212025
:1008100080F82090016BE2E7BDE8F09F08000240FD
:100820001C000240300002404400024058000240D8
:100830006C00024030B528B308C81349142219448B
:10084000B1FBF2F18900C163104981630221417754
:100850001A6843F6F0718A43D0E900142143D0E9C5
:1008600002452C432143046921434469214384699F
:10087000214311431960002141630122427701772E
:10088000084630BD012030BDF8FFFDBF000002402A
:1008900070B5044690F82000002501280CD00120F6
:1008A00084F8200094F821600020012E06D084F8FE
:1008B00020000225284670BD022070BD022684F863
:1008C0002160A0632068066826F0010606602046C5
:1008D000FFF7EEFEE06A00282068016802D041F0D0
:1008E0000E0106E021F0040101602068016841F07A
:1008F0000A0101602068016841F001010160D9E747
:100900002DE9F84FDFF8B891002409F1040A0AF143
:10091000040B23460F270BF1040EC9E00125A54067
:100920002A40AA427DD1674ED1F804C0ACEB06083C
:10093000B44532D014DCBCF1030F3AD009DCBCF171
:10094000000F2AD0BCF1010F1CD0BCF1020F31D135
:100950001DE0BCF1110F17D0BCF1120F2AD119E024
:10096000B8F5881F19D006DCB8F5803F15D0B8F56A
:10097000801F1FD111E0B8F5001F0ED0B8F5041F7D
:1009800018D10AE0CB6815E0CB681B1D12E0CB68DC
:1009900008330FE0CB680C330CE08B682BB1012BD4
:1009A0004FF0080303D0456104E0042302E0056131
:1009B00000E00023FF2A01D8064601E000F104060A
:1009C0004FEA840501D9A5F12005D6F8008007FA81
:1009D00005FC28EA0C0803FA05F548EA0508C6F8FC
:1009E00000804D68ED0062D5374DAE6946F00106D6
:1009F000AE61AD6924F0030605F001050095334DA5
:100A000006EB050CDCF80850A607360F07FA06F8C7
:100A100025EA0805DFF8B880404503D14FF000080B
:100A200017E044E0DFF8AC80404502D14FF0010808
:100A30000FE0DFF8A480404502D14FF0020808E043
:100A4000DFF89880404502D14FF0030801E04FF0F5
:100A5000040808FA06F848EA0508CCF808804D684A
:100A6000D9F80060ED034D4601D5164300E09643EA
:100A70002E604D68DAF80060AD03554601D5164387
:100A800000E096432E604D68DBF80060ED025D46A5
:100A900001D5164300E096432E604D68DEF80060F5
:100AA000AD02754601D5164300E096432E60641CE6
:100AB0000D682A46E5407FF431AFBDE8F88F0000AD
:100AC000000401400000111000100240000001402D
:100AD00000080140000C01400010014000140140DA
:100AE000014880687047000040000020024881688B
:100AF000027811448160704740000020074810B51B
:100B0000016841F010010160032000F075F8002039
:100B100000F006F800F024F8002010BD002002408C
:100B200070B50D4D04464FF47A712878B1FBF0F0A2
:100B30000A490968B1FBF0F000F0ECFA48B9102C52
:100B400007D200222146501E00F036F800206C60CB
:100B500070BD012070BD0000400000204C0000204E
:100B60000C4808B5816941F001018161816901F09A
:100B700001010091C16941F08051C161C06900F07B
:100B8000805000900448416821F0E06141F000711C
:100B9000416008BD0010024000000140002809DB50
:100BA00000F01F02012191404009800000F1E02087
:100BB000C0F8001170470000F0B40E4B1B680C46E3
:100BC000C3F30223C3F10705042D00D90425191D21
:100BD000072901D2002300E0DB1E012606FA05F1F9
:100BE000491E214099409E40761E16403143F0BC7C
:100BF00001F005BB0CED00E0064900F007020868B3
:100C00004FF6FF03184040EA0220034A10430860F1
:100C1000704700000CED00E00000FA052DE9F047F8
:100C20000F46050061D0434E306800F00700B8421F
:100C300009D2306820F0070038433060306800F097
:100C40000700B84251D128683B4C810712D54007B4
:100C500003D5606840F4E06060602878000703D541
:100C6000606840F4605060606068A96820F0F0003F
:100C7000084360602878C00728D06868012810D031
:100C80002168022810D0890700292EDA616821F036
:100C9000030101436160FFF723FF804641F2883979
:100CA0000DE021688903EFE78901EDE7FFF718FF01
:100CB000A0EB0801494502D90320BDE8F087606830
:100CC000696800F00C00B0EB810FEFD1306800F0E4
:100CD0000700B8420BD9306820F007003843306075
:100CE000306800F00700B84201D00120E5E728781D
:100CF000400705D56068E96820F4E060084360605B
:100D00002878000706D56068296920F4605040EA19
:100D1000C100606000F038F86168084AC1F303114F
:100D2000515CC8400649086006480068FFF7F8FEB5
:100D30000020C2E700200240001002406C2300089F
:100D40004C00002044000020044805490068496820
:100D5000044AC1F30221515CC84070474C00002096
:100D6000001002407C2300080448054900684968D7
:100D7000044AC1F3C221515CC84070474C000020B6
:100D8000001002407C23000812A185B00FC98DE835
:100D90000F0014A0144A006804905168134801F031
:100DA0000C03042B10D0082B0ED1C1F38343C903CD
:100DB0001DF803000AD5516804AAC1F34041515CF3
:100DC0000A4A5043B0FBF1F005B070470849484368
:100DD000FAE7000002030405060708090A0B0C0DD8
:100DE0000E0F1010010200000010024000127A00E5
:100DF00000093D002DE9F84F040070D02078C04D67
:100E0000C00749D06868C0F38100012807D068682E
:100E1000C0F38100022809D16868C00306D528689C
:100E2000800339D560680028E7D035E06068B0F508
:100E3000803F0BD010B1B0F5A02F11D0286820F45E
:100E400080302860286820F4802002E0286840F480
:100E500080302860606890B1FFF742FE06460AE0E5
:100E6000286840F480202860F0E700BFFFF738FED4
:100E7000801B642873D828688003F7D50CE0FFF73F
:100E80002FFE064605E000BFFFF72AFE801B642800
:100E9000F0D828688003F7D420789A4E80074FF066
:100EA00001094FF0000839D5686810F00C0F07D021
:100EB0006868C0F38100022809D16868C00306D4BD
:100EC0002868800714D52069012808D110E020691E
:100ED000B0B1C6F80090FFF703FE074605E00AE14F
:100EE000FFF7FEFDC01B0228C4D828688007F7D58D
:100EF0002868616920F0F80040EAC10028600DE030
:100F0000C6F80080FFF7ECFD074604E0FFF7E8FDB8
:100F1000C01B022823D828688007F7D42078000750
:100F20002CD57948A169D9B1C0F80090FFF7D8FD58
:100F3000074604E0FFF7D4FDC01B02280FD8686AFB
:100F40008007F7D571484FF4FA510068B0FBF1F013
:100F5000009000BF0098411E0091FAD20EE080E0A0
:100F6000C0F80080FFF7BCFD074604E0FFF7B8FDBE
:100F7000C01B022875D8686A8007F7D4207840071C
:100F800060D5E8690027C00008D4E86940F08050C7
:100F9000E861E869012700F0805000905C48016832
:100FA000C90513D40168834641F480710160FFF7DD
:100FB00097FD824606E000BFFFF792FDA0EB0A0016
:100FC00064284ED8DBF80000C005F5D5E06801289C
:100FD0000AD008B1052813D0286A20F00100286241
:100FE000286A20F0040002E0286A40F0010028622C
:100FF000E06841F2883B98B1FFF772FD82460BE052
:10100000286A40F004002862EEE700BFFFF768FDA1
:10101000A0EB0A0159455AD8286A8007F6D50CE09A
:10102000FFF75EFD824605E0FFF75AFDA0EB0A01DF
:1010300059454CD8286A8007F6D41FB1E86920F0DA
:101040008050E861E06988B36968C1F381010229D1
:1010500044D00228C6F8608004D0FFF741FD044662
:1010600038E034E0FFF73CFD074604E0FFF738FDC9
:10107000C01B02282BD828688001F7D4206AB0F55D
:10108000803F05D16868A16820F40030084368609B
:10109000D4E908010843696821F4741108436860C1
:1010A000C6F86090FFF71CFD044606E025E000BF8F
:1010B000FFF716FD001B022809D828688001F7D524
:1010C0001BE000BFFFF70CFD001B022802D9032024
:1010D000BDE8F88F28688001F4D40EE00128F7D02D
:1010E0006868226A00F48031914204D1616A00F498
:1010F0007010884201D00120EAE70020E8E70000F4
:101100000010024000004242800442424C00002095
:101110000070004010B5401EB0F1807F01D3012067
:1011200010BD4FF0E02460610F21601701F067F8F7
:101130000020A06107202061002010BD704770478B
:1011400070B590F83C20012A19D0012400F83C4FDA
:101150000222427050F83C3C5A689D6822F07006AA
:101160000A684968324325F0800529435A6050F8DF
:101170003C2C9160447000210170084670BD022033
:1011800070BD10B5040003D094F83D0010B107E025
:10119000012010BD002084F83C00204600F00CF82F
:1011A000022084F83D00211D206800F035FE01205A
:1011B00084F83D00002010BD08B501681048B1F169
:1011C000804F0BD00F4A914207D1C16941F0040111
:1011D000C161C06900F00400009008BDC16941F020
:1011E0000101C161C069002200F0010000901146B8
:1011F0001C20FFF7E1FCBDE808401C20FFF7CEBC37
:1012000000100240000800400168CA6842F0010274
:10121000CA600068816801F00701062903D00168EF
:1012200041F0010101600020704770B5044690F85C
:101230003C00012817D0012584F83C50022084F896
:101240003D002068826822F0770222F47F428260AB
:101250000868502830D00DDC20284DD005DC98B32C
:1012600010283BD148E0022070BD302844D04028EF
:1012700034D139E0602828D0702806D0B0F5805FDE
:101280002CD0B0F5005F29D10AE0CB68D1E901216B
:10129000206800F004FE2068816841F0770109E0D1
:1012A000CB68D1E90121206800F0F9FD2068816850
:1012B00041F48041816011E0CA684968206800F00B
:1012C000A3FE5021206807E016E0CA68496820683C
:1012D00000F0ABFE6021206800F0EBFD84F83D508B
:1012E000002084F83C0070BDCA684968206800F09E
:1012F0008BFE40212068EFE7226801461046EBE7AD
:101300002DE9F0410D46040003D094F83D0018B1DA
:1013100008E00120BDE8F081002084F83C00204670
:1013200000F03AF8022084F83D002068816844F219
:10133000070291438160211D206800F06DFD226845
:1013400090689169166A2B68AF69034340F20330D5
:10135000814341EA0721A868EF6908434FF6FC4141
:101360008843E96840EA0720014328692F6A0001A1
:1013700040EA0730084369686D6926F0220646EAAC
:10138000051529439360226890612068016201205D
:1013900084F83D000020BDE700B585B00021009134
:1013A00001910291039100680E49884218D10E48BC
:1013B000C16941F00201C161C16901F002010491FA
:1013C000816941F0040181618069694600F004008F
:1013D0000490C0200090012002900448FFF790FA8A
:1013E00005B000BD000400400010024000080140AC
:1013F00010B50446006891B1042904D001220021EF
:1014000000F040FD206801225FF0040100F03AFD89
:101410002068016841F001010160002010BD012237
:101420000021F3E7704770B50446006801694FF08A
:101430000005C943890715D4C168C943890711D478
:10144000E91E01610120207720688069800720461D
:1014500002D0FFF7E7FF04E000F0BEF8204600F0FE
:1014600040F9257720680169C943490717D4C16845
:10147000C943490713D46FF00401016102202077AA
:101480002068806910F4407F204602D0FFF7CAFF31
:1014900004E000F0A1F8204600F023F92577206849
:1014A0000169C943090716D4C168C943090712D4A1
:1014B0006FF008010161042020772068C06980076F
:1014C000204602D0FFF7AEFF04E000F085F820468A
:1014D00000F007F9257720680169C943C90617D4C8
:1014E000C168C943C90613D46FF010010161082017
:1014F00020772068C06910F4407F204602D0FFF7B3
:1015000091FF04E000F068F8204600F0EAF8257743
:1015100020680169C943C90708D1C168C943C9071F
:1015200004D1891E0161204600F0F8F820680169A5
:10153000C943090609D4C168C943090605D46FF037
:10154000800101612046FFF7F9FD20680169C94368
:10155000490609D4C168C943490605D46FF0400162
:101560000161204600F0FAF920680169C943890643
:101570000BD4C168C943890607D46FF0200101610B
:101580002046BDE87040FFF7DABD70BD00B585B0FC
:101590000021009101910291039100680B4988425A
:1015A00011D10B48816941F0080181618069694668
:1015B00000F008000490C0200090022001900390E9
:1015C0000448FFF79DF905B000BD00000008004089
:1015D00000100240000C0140704770B5044690F8BE
:1015E0003C000D4601280DD0012684F83C60022005
:1015F00084F83D0042B1042A18D0082A2AD00C2AC7
:101600004DD139E0022070BD206800F05BFC2068FD
:10161000816941F0080181612068816921F004013C
:101620008161206881692A69114311E0206800F016
:1016300071FC2068816941F40061816120688169E1
:1016400021F480618161206881692A6941EA02216F
:10165000816124E0206800F089FC2068C16941F0C4
:101660000801C1612068C16921F00401C1612068DD
:10167000C1692A69114311E0206800F0A3FC2068C9
:10168000C16941F40061C1612068C16921F48061D0
:10169000C1612068C1692A6941EA0221C16184F8F7
:1016A0003D60002084F83C0070BD10B5040003D0FC
:1016B00094F83D0010B107E0012010BD002084F82F
:1016C0003C00204600F00CF8022084F83D00211D6B
:1016D000206800F0A1FB012084F83D00002010BD2F
:1016E0007047704710B504460068012200F0CAFB3D
:1016F00009492068884203D1416C41F400414164AA
:101700002068816801F00701062903D0016841F0D3
:1017100001010160002010BD002C01402DE9FE4FA9
:101720000068B0F1804F70D100F088FD8549074610
:10173000854DC8630846002600780C46742802D000
:101740006E2871D073E06078722870D1A069E06172
:1017500002906069A0618246206A60620190394609
:10176000A06AFEF753FD804651466061FEF74EFDCC
:10177000A168FEF751FD2063009051464046FEF7F8
:10178000F3FCFEF7A4FE81468B46E068FEF79FFE61
:101790004FF0FF32FEF75FFE6C4A6D4BFEF77AFDAD
:1017A0004A465B46FEF776FDFEF7A4FE834660637D
:1017B00001215046FEF762FD4146FEF72AFD0299DF
:1017C000FEF7D2FCFEF783FE804689462069FEF7CD
:1017D0007EFE5E4A5E4BFEF7CFFD42464B46FEF76D
:1017E00059FDFEF787FE8046A063DDE90010FEF795
:1017F000BBFC5946FEF7B8FC4146FEF7B5FC20623B
:1018000010F1FF4F02D3266204E018E051498842EC
:1018100000DD2162206AFEF746FE296848632868D9
:10182000866378E000E002E06078722809D04548DD
:101830004078732803D12868866328684663BDE82A
:10184000FE8FA069E06181466069A0618046206AE0
:10185000606202903946A06AFEF786FC60614146EC
:101860000090FEF7D3FCA168FEF7D6FC8346206308
:1018700041460098FEF778FCFEF729FE824601916A
:10188000E068FEF724FE4FF0FF32FEF7E4FD2F4A3A
:101890002F4BFEF7FFFC5246019BFEF7FBFCFEF7C9
:1018A00029FE8246606301214046FEF7E7FC00996D
:1018B000FEF7AFFC4946FEF757FCFEF708FE8046F0
:1018C00089462069FEF703FE204A214BFEF754FDAE
:1018D00042464B46FEF7DEFCFEF70CFE8046A06358
:1018E00059460298FEF740FC5146FEF73DFC414642
:1018F000FEF73AFC206210F1FF4F01D3266203E0AD
:101900001449884200DD2162206AFEF7CCFD296877
:101910008863286846630C486421803001706B211D
:1019200041706D2181707421C170762101716F2128
:1019300041718171C17187600748016841F0800180
:1019400001607CE700000020D00000207B14AE473F
:10195000E17A843F0000C642144800407047704757
:1019600070B5040004D094F83900002510B106E0E9
:10197000012070BD84F83850204600F023F8242060
:1019800084F839002068C16821F40051C160204604
:1019900000F0D8FB2068016921F4904101612068C2
:1019A000416921F02A0141612068C16841F4005178
:1019B000C160E563202084F8390084F83A000020F3
:1019C00070BD00002DE9F04186B000240646009469
:1019D0000194029403940068294988424CD1294813
:1019E000C16941F48021C161C16901F48021049180
:1019F000816941F0080181618069234D00F0080090
:101A000004904FF480600090022001900320039026
:101A100069462846FEF774FFE814CDE900046946DC
:101A200028460294FEF76CFF194D18488027C5E937
:101A30000004C5E902474FF020082C61C5E90548BC
:101A40002846EC61FEF7F6FE08B1FEF747FE756327
:101A50006E620E480F4D143801C5102091C50D4817
:101A600045F81049C5E90548EC61FEF7E3FE08B109
:101A7000FEF734FE35636E6206B0BDE8F08100000B
:101A80000048004000100240000C014030000240BD
:101A900074010020B8010020F8B5044690F83A001F
:101AA00020283CD1C1B3BAB394F83800012836D00D
:101AB000012084F83800A162A2850025E563222078
:101AC00084F83A00636B17489862636B1648D862D3
:101AD000636B16481863606B134645630846666B74
:101AE000216802463046091DFEF7D2FE20680168D3
:101AF0004168009184F83850C16841F48071C16038
:101B00002068416941F0010141612068416941F06B
:101B1000400141610020F8BDFFE70120FBE7022002
:101B2000F9E7000099200008D52000084F200008A0
:101B30001848017864292CD14178762929D18178F7
:101B4000722926D1C178632923D1134902794A70B9
:101B500042790A7082688A62C2688A600269CA60D1
:101B6000406908610B4864210C3801706B21417099
:101B70006D2181707421C170722101716F214171D9
:101B80008171C171002181600448016841F08001C8
:101B9000016070475C0100200000002014480040F4
:101BA0007047000070B5044690F83900202830D105
:101BB00069B362B394F8380001282AD0012084F870
:101BC00038002162A284E2840025E563212084F8A4
:101BD0003900236B10489862236B1048D862236B3E
:101BE0000F481863206B134645632668206B321D2F
:101BF000FEF74EFE21686FF04000086084F8385010
:101C00002068416941F080014161002070BD0120E0
:101C100070BD022070BD0000DF2000080D2100080B
:101C20004F2000080248016821F0800101607047E0
:101C3000144800407047FEE710B586B000241148F4
:101C4000009401940294039404944FF0804105940D
:101C500001604FF4C851C0E901146321C0E90314C5
:101C60008461FFF78EFA4FF4805000906946054872
:101C7000FFF7DBFA049404A902480594FFF760FA21
:101C800006B010BD5000002010B58CB0242168466D
:101C9000FEF75FFA00241248099410490A94C0E93B
:101CA00000144FF6FF71C0E9024104618461032012
:101CB000CDE900040120CDE902040494CDE90540FA
:101CC0000794694606480894FFF71AFB099409A986
:101CD00003480A94FFF734FA0CB010BD000400402A
:101CE0009000002010B58EB0002407940894099449
:101CF0000A940B941C2168460C94FEF72AFA1948A2
:101D0000174901604FF4C851C0E901146321C0E9CB
:101D100003148461FFF735FA4FF48050079007A948
:101D20001048FFF782FA0F48FFF7BFFC0B940BA98E
:101D30000C480C94FFF704FA6020CDE900040294EB
:101D40000022694607480494FFF747FC04226946CD
:101D50000448FFF742FC0348FFF718FC0EB010BD23
:101D600000080040D0000020FEE770477047704731
:101D7000FEF7BCBE30B58FB028216846FEF7E9F902
:101D800014210AA8FEF7E5F901210804CDE90010A5
:101D90000024029402250491CDE907504FF4C010AD
:101DA00009906846FFF726F80F20CDE90A0568027A
:101DB000CDE90C4002210AA80E94FEF72FFF0FB0C8
:101DC00030BD00000D48016841F00101016041682B
:101DD0000B4A1140416001680A4A114001600168E4
:101DE00021F480210160416821F4FE0141604FF43B
:101DF0001F0181600449C003086070470010024061
:101E00000000FFF8FFFFF6FE08ED00E00148FFF7D5
:101E10000ABB000050000020F0B50268164B174CBA
:101E2000174D4FF08047984205D0B84203D0A042EA
:101E300001D0A84203D122F070064A68324398428A
:101E400005D0B84203D0A04201D0A84203D122F469
:101E50004074CA6822434C6922F080022243026027
:101E60008A68C2620A688262984201D10969016384
:101E700001214161F0BD0000002C01400004004040
:101E80000008004010B501F01F030121046A9940C9
:101E90008C430462016A9A401143016210BD10B57F
:101EA000846842EA032224F47F440A432243826086
:101EB00010BD826822F070020A4342F0070181607F
:101EC0007047000030B5026A22F001020262026A25
:101ED0004368846924F073050C682C4322F00205E2
:101EE0008A682A430A4DA8420BD122F00805CA6825
:101EF00023F440732A434D6922F004021D438B6989
:101F00002B434360846149684163026230BD000035
:101F1000002C014030B5026A22F010020262026A0F
:101F2000436884690D6824F4E64444EA05248D6816
:101F300022F0200242EA05120B4DA8420ED1CD68D4
:101F400022F0800242EA05124D6923F4406343EA1D
:101F500085038D6922F0400243EA85034360846172
:101F600049688163026230BD002C014030B5026ACD
:101F700022F480720262036A4268C46923F4007327
:101F800024F073050C682C438D6843EA05230C4D3F
:101F9000A8420ED1CD6823F4006343EA05234D69BE
:101FA00022F4405242EA05128D6923F4806342EA2A
:101FB00005124260C4614968C163036230BD00001C
:101FC000002C014030B5026A22F480520262046A99
:101FD0004268C3690D6823F4E64343EA05238D682C
:101FE00024F4005444EA0534064DA84204D14D6956
:101FF00022F4804242EA85124260C361496801646A
:10200000046230BD002C014010B5036A046A24F05C
:1020100001040462846924F0F00444EA021423F009
:102020000A020A438461026210BD10B5036A23F0FC
:10203000100303628369046A23F4704343EA0232A3
:1020400024F0A00343EA01118261016210BD70B562
:10205000446A2068406994F83910C0F3C010002524
:10206000212904D118B1E584204600F062F82068E7
:10207000406994F83A10C0F38010222904D118B1B5
:10208000E585204600F047F8E06B40F01000E06383
:102090002046FFF764FC70BD10B50146406A096830
:1020A0000968890613D40021C1850168CA6822F431
:1020B0008072CA6001684A6922F001024A610168BF
:1020C0004A6922F040024A61202180F83A10FFF765
:1020D0002FFD10BD10B5406AFFF762FD10BD10B5B1
:1020E0000146406A0968096889060CD40021C18448
:1020F00001684A6922F080024A610068C16841F0C3
:102100004001C16010BDFFF78DFD10BD10B5406AE4
:10211000FFF790FD10BD0168CA6822F49072CA6092
:1021200001684A6922F001024A61202180F83A10D0
:1021300070470168CA6822F0C002CA60202180F896
:10214000391070472DE9F041044600680169E268E2
:1021500021F44051114301612169A068084361697C
:1021600008432168CA6841F20C639A430243CA607B
:1021700020684169A26921F44071114341611E49FF
:10218000206864253226884202D1FEF7EDFD01E089
:10219000FEF7DAFD00EBC00101EB001160686FF0A3
:1021A00018078000B1FBF0F2B2FBF5F2B1FBF0F3DF
:1021B0007A4303EB8202B1FBF0F306EB0212B2FBAF
:1021C000F5F2B3FBF5F302F0F00202EB0312B1FB00
:1021D000F0F3B1FBF0F0B0FBF5F0784303EB8000D7
:1021E00006EB0010B0FBF5F0216800F00F00104482
:1021F0008860BDE8F081000000380140FEE7090773
:10220000090E002804DB00F1E02080F8001470477C
:1022100000F00F0000F1E02080F8141D704702E08C
:1022200008C8121F08C1002AFAD170477047002061
:1022300001E001C1121F002AFBD1704770B50D48A3
:102240000068406A0C4D04B26C80B5F90400201A95
:10225000FEF718F90022094BFEF71CF80022084B84
:10226000FEF718F80022074BFEF786F8FEF742F952
:10227000AC8070BD9000002000000020000059409C
:1022800000004E400060974008B5FEF737FCFFF7AE
:1022900071FD334CA06940F02000A061A06900F0FE
:1022A00020000090A06940F00400A061A06900F047
:1022B00004000090A06940F00800A061A06900F04F
:1022C00008000090FFF7B8FCFFF7DEFCFFF70AFDFF
:1022D000606940F0010060616069002200F0010067
:1022E000009011460C20FEF767FC0C20FEF756FC10
:1022F000002211460D20FEF75FFC0D20FEF74EFC7C
:10230000194818490C2201604FF4E1314160002165
:102310008160C160C0E904128161C161FFF720FBE7
:10232000114804218038FFF763F80F480021403836
:10233000FFF7D8F90C4804214038FFF7D3F90A48D1
:10234000C038FEF761FF084918224C310648FFF7F4
:10235000A3FB05490C2240310348FFF723FCFEE7AD
:102360000010024000480040100100200000000062
:102370000000000001020304060708090000000035
:1023800001020304A4230008000000205000000004
:102390001E220008F423000850000020B0050000B1
:1023A0002E22000874730000000000003333333F16
:1023B000000060406F12033A0000000000000000BF
:1023C0000000000000000000000000000000484283
:1023D00000000000000000000000000000000000FD
:1023E00000000000010000001000000000000000DC
:0423F0000024F400D1
:04000005080000ED02
:00000001FF
