:020000040800F2
:10000000500800209D010008E329000893280008FB
:10001000E1290008D5090008E92D000800000000CA
:10002000000000000000000000000000E7290008B8
:100030001D0B000800000000E5290008E929000860
:10004000B7010008B7010008B7010008B7010008B0
:10005000B7010008B7010008B7010008B7010008A0
:10006000B7010008B7010008B7010008B701000890
:100070003D0A0008B7010008490A0008B701000856
:10008000550A0008610A0008A1080008B701000825
:10009000B7010008B7010008B7010008B701000860
:1000A000B7010008B7010008B7010008B701000850
:1000B000B70100088D2A0008B7010008B701000841
:1000C000B7010008B7010008B7010008B701000830
:1000D000B7010008B7010008B7010008B701000820
:1000E000B7010008B7010008B7010008B701000810
:1000F000B7010008B7010008B7010008B701000800
:10010000B7010008B7010008B7010008B7010008EF
:10011000B7010008B7010008B7010008B7010008DF
:100120006D0A0008B7010008B7010008B701000810
:10013000B7010008B7010008B7010008B7010008BF
:10014000B7010008B7010008B7010008B7010008AF
:10015000B7010008B7010008B7010008B70100089F
:10016000B7010008B7010008B7010008B70100088F
:10017000B7010008B7010008B7010008000000003F
:10018000B7010008B7010008DFF80CD000F0FEFA54
:10019000004800477537000850080020064880478F
:1001A00006480047FEE7FEE7FEE7FEE7FEE7FEE75C
:1001B000FEE7FEE7FEE7FEE7712A00088901000876
:1001C0002DE9F05F0546002092469B46884606468C
:1001D000814640241BE0284641464746224600F01F
:1001E0001EFA53465A46C01A914110D3114618467A
:1001F000224600F005FA2D1A67EB01084F46224609
:100200000120002100F0FCF917EB00094E41201EEF
:10021000A4F10104DFDC484631462A464346BDE8E6
:10022000F09FD2B201E000F8012B491EFBD27047CB
:100230000022F6E710B513460A4604461946FFF7B2
:10024000F0FF204610BD2DE9FE4F804681EA0300F5
:10025000C00F0C46009021F0004123F00045B8EBA0
:100260000200A94105D24046214690461C460B4655
:10027000024623F00040104347D0270DC7F30A0081
:10028000C3F30A510290401A019040286BDAC3F37D
:10029000130040F4801B0098924620B10023D2EB5B
:1002A000030A63EB0B0B01985946C0F1400250461C
:1002B00000F0A6F906460D4650465946019A00F050
:1002C000BEF910EB08006141002487EA115284EA6C
:1002D000E7731A4340D0009A62B3019A012A4FEAA9
:1002E000075215DC001B61EB02014FF0004202EAED
:1002F0000752CDE90042001C41F5801132462B46E1
:1003000000F0F5F903B0BDE8F08F40462146F9E76B
:10031000001B61EB0201001C41F5801300185B41DA
:100320002018A2F5001747EB030140EAD570B61973
:100330006D4111E06D084FEA360645EAC0754FEA97
:100340000752001B61EB0201001C41F580114908B6
:100350004FEA30000019514132462B4603B0BDE848
:10036000F04F00F0B5B90098012240000023D0EB17
:10037000020263EBE073009821464FEAE074B8EBA9
:10038000000061EB0401E9E783F000435BE781F0E3
:10039000004158E72DE9FE4F81EA030404F00044D0
:1003A00021F0004100944FF0000B23F0004350EA8D
:1003B00001045ED052EA03045BD0C3F30A54C1F3D4
:1003C0000A552C44A4F2F3340194A0FB0254C1F367
:1003D000130141F48011C3F3130343F4801301FBB1
:1003E000024400FB034E840A970A44EA815447EA18
:1003F0008357A4FB076802958D0A05FB07854FEA22
:10040000932C04FB0C542705029D4FEA065847EA3B
:100410001637B5EB08056EEB070C870E920E47EA10
:10042000811742EA8312A7FB0201B6EB0B0164EBD2
:1004300000042B0D43EA0C335E1844EB1C50DA46E3
:100440005146E7FB0201C5F313044FEA0B3343EABD
:1004500014534FEA0432019C43EA0603A4F10C044E
:100460000294009CCDE900B400F041F903B0BDE86E
:10047000F08F00200146F9E72DE9F04D81EA0304F1
:1004800004F0004B21F0004514464FF0000A23F021
:10049000004150EA050220D054EA01021DD0C5F304
:1004A0000A570246C5F31303C1F31300C1F30A56FA
:1004B00040F4801543F48013A7EB0608101BD646C2
:1004C00008F2FD3873EB050002D308F1010801E0E2
:1004D00092185B41B8F1000F03DA00200146BDE835
:1004E000F08D00204FF48011064684460EE0171B65
:1004F00073EB050705D3121B63EB050306434CEAB8
:10050000010C49084FEA300092185B4150EA01079C
:10051000EDD152EA030012D082EA040083EA050119
:10052000084305D0101BAB4106D20122002306E090
:1005300000224FF0004302E06FF0010253101AEB6B
:1005400006004CEB085110EB0A0041EB0B01BDE833
:10055000F04D00F0BDB80EB540F2334102910021DC
:10056000CDE900110A460B4600F0C1F803B000BD0A
:10057000C1F30A5210B5C1F3130140F2FF3341F445
:1005800080119A4201DA002010BD40F233439A42B2
:10059000A2F2334203DC524200F041F810BD904019
:1005A00010BD00F0004230F000400AD0C10D01F54E
:1005B0006071C0F3160042EA0151C20840071143BE
:1005C000704700200146704701F0004330B421F02D
:1005D000004150EA010206D00A0DA2F56072C1F393
:1005E0001301002A02DC30BC00207047440F44EAAB
:1005F000C104C100E01830BC00EBC25000F031B8BB
:10060000202A04DB203A00FA02F1002070479140D2
:10061000C2F1200320FA03F3194390407047202AC7
:1006200004DB203A21FA02F00021704721FA02F39C
:10063000D040C2F120029140084319467047202A59
:1006400006DBCB17203A41FA02F043EAE07306E0FA
:1006500041FA02F3D040C2F120029140084319460A
:1006600070470029A8BF7047401C490008BF20F010
:100670000100704710B4B0FA80FC00FA0CF050EAA8
:10068000010404BF10BC704749B1CCF1200421FA29
:1006900004F411FA0CF118BF012121430843A3EB24
:1006A0000C01CB1D4FEA00614FEA102042BF002031
:1006B00010BC704700EBC35010440029A4BF10BC0D
:1006C0007047401C490008BF20F0010010BC704773
:1006D00010B5141E73F1000408DA401C41F100014A
:1006E00092185B411A4301D120F0010010BD2DE9A1
:1006F000F04D92469B4611B1B1FA81F202E0B0FA98
:1007000080F220329046FFF77BFF04460F4640EA16
:100710000A0041EA0B0153465A46084313D01146DA
:1007200053EA010019D0C8F140025046FFF777FFA5
:1007300005460E46504659464246FFF761FF0843BC
:1007400005D0012004E020463946BDE8F08D0020A8
:10075000054346EAE0762C4337430A986305E40AEA
:10076000A0EB08000022FD0A44EA47540A3002D5F3
:1007700000200146E9E7010510196941DDE9084556
:1007800000196941BDE8F04DA2E70000064C074D95
:1007900006E0E06840F0010394E807009847103451
:1007A000AC42F6D3FFF7F4FC283A0008483A0008B8
:1007B0000EB5C10F80EAE0700844CA07002140F27C
:1007C00033438DE80E000A460B46FFF790FF03B057
:1007D00000BD70B5C1F30A5201F000450024C1F319
:1007E000130140F2FF3341F480119A4201DA0020F4
:1007F00070BD40F233439A42A2F2334203DC5242CC
:10080000FFF70DFF00E090402C43F1D0404270BD57
:1008100010B50146806B026C12F0500F05D0026CCF
:10082000D20626D500F077FB10BD016C41F40071B3
:10083000016401688A6812F0405F17D1027EAAB98C
:10084000CA6A12F4700F02D08A6852050ED44A6840
:1008500022F020024A60016C21F480710164016C75
:10086000C90403D4016C41F00101016400F000FAF5
:1008700010BD806BC26CBDE810400846104710B533
:10088000806B40210164416C41F00401416400F03F
:1008900042FB10BD10B5806B00F03CFB10BD0000AA
:1008A000014800F039BB000098000020464910B50F
:1008B0004A6822F440324A604A6843681A434A60F0
:1008C00001684A6822F480724A6001684A680369D4
:1008D00042EA03224A6001684A6822F040724A6094
:1008E00001684A6883681A434A6001688A6822F48A
:1008F00000628A6001688A68C3681A438A60816AF4
:100900006FF07062D14201688A6822F070628A607A
:1009100001688A680CD0836A1A438A6001688A6811
:1009200022F040528A6001688A68C36A1A4301E073
:1009300022F040528A6001688A6822F002028A60CE
:1009400001688A68037E42EA43028A6090F82010B8
:10095000002901684A680FD042F400624A600168C9
:100960004A6822F460424A6001684A68174C436A48
:1009700004EB43331A4301E022F400624A60016849
:10098000CA6A22F47002CA620168CA6A838B104C78
:1009900004EB03531A43CA6201688A6822F40072A6
:1009A0008A6001688A6890F8303042EA43228A609F
:1009B00001688A6822F480628A6001688A684069F6
:1009C00042EA8020886010BD0023014000E0FFFF64
:1009D0000000F0FFFEE710B5846B204600F076FCC7
:1009E0000120207110BD10B5846B204600F04AFC38
:1009F0000120207110BD10B5846B206940F0040007
:100A00002061204600F064FC0120207110BD10B56B
:100A1000846B206940F004002061204600F034FC23
:100A20000120207110BD10B5806B00F050FC10BD8E
:100A300010B5806B00F027FC10BD0000014800F0ED
:100A400049BD000090030020014800F043BD0000B4
:100A5000F0030020014800F03DBD0000D00200205E
:100A6000014800F037BD000030030020014800F0CD
:100A700031BD00007002002001681823CAB2103A8C
:100A8000B2FBF3F2054B6FF30901032A9B5CC365CC
:100A900000D9091D8165084670470000E838000844
:100AA00010B5014600208B698A6A4FF0C07453B1BB
:100AB000B3F5005F15D072B1012A0CD0022A0AD01A
:100AC000032A09D104E01AB1012A06D0022A03D16F
:100AD000C96AC90100D5012010BDC96AA142FAD076
:100AE00010BD002AF7D0012AF2D0022AF3D0032A3F
:100AF000F3D010BD30B50468256825F48025256045
:100B0000046863608368402B036803D099600068C1
:100B1000C26030BD9A600068C16030BD70477047E8
:100B20007047000078B50024009490F83C20012A1A
:100B300019D0012280F83C200A6807230568092A99
:100B400013D9EE680A3A02EB420293409E43EE60EC
:100B50000B788A680A3B03EB43039A400368DD681D
:100B60002A43DA6010E0022078BD2E6902EB4202CF
:100B700093409E432E610B788A6803EB43039A40AF
:100B800003681D692A431A614A681F23072A13D282
:100B900005686E6B521E02EB820293409E436E63A9
:100BA0000B790A885B1E92B203EB83039A400368B9
:100BB0005D6B2A435A6327E005680D2A12D22E6B1B
:100BC000D21F02EB820293409E432E630B790A8868
:100BD000DB1F92B203EB83039A4003681D6B2A4329
:100BE0001A6311E0EE6A0D3A02EB820293409E43D3
:100BF000EE620B790A880D3B92B203EB83039A40B5
:100C00000368DD6A2A43DA62164B0568144A9D427E
:100C100006D10D68122D03D1556845F48005556045
:100C200005689D4218D10B68102B01D0112B13D1F0
:100C3000536843F400035360096810290CD10A4932
:100C40000A4A0968B1FBF2F101EB8101490000E0B9
:100C5000491E00910029FBD180F83C40002078BD5E
:100C600000230140002001409000002040420F007E
:100C70002DE9F047944D2DED108B05F130062878C5
:100C80009FED928B9FED939BDFF8508240F6FF77AC
:100C90009FED93AB9FED94BB72287CD1687862285E
:100CA000FBD13088FFF757FC53EC1A2BFFF7E4FB1E
:100CB00053EC1B2BFFF76EFBFFF786FC6861FFF719
:100CC00070FC53EC182BFFF765FB41EC1C0BA8697B
:100CD000FFF767FC53EC192BFFF75CFB53EC1C2B65
:100CE000FFF7B1FAFFF770FCE861A861708840F285
:100CF000E7314843B0FBF7F0401C80B2A880FFF713
:100D00002AFC53EC182BFFF745FB41EC1C0BE88841
:100D1000FFF721FC53EC192BFFF73CFB53EC1C2B8A
:100D2000FFF791FAFFF724FC80B22881E88000EBFE
:100D300080008100B8FBF1F0401E6D4980B228822E
:100D4000C862002405F138099FED6AEB9FED6BFB4B
:100D5000DFF8B0A1E869FFF724FC41EC1D0B39F87E
:100D60001400FFF7F8FB53EC1E2BFFF713FB53ECBB
:100D70001F2BFFF781FB41EC100B02F061F8B0EE86
:100D800040CAF0EE60CAE869FFF70BFC53EC1C2B7D
:100D9000FFF700FB00E018E053EC1D2BFFF753FAC0
:100DA0009FED591B53EC112BFFF766FBB0EE4A1A6F
:100DB000F0EE6A1A53EC112BFFF7ECFAFFF7D8FBB1
:100DC0002AF81400641C132CC4DDA878722876D18C
:100DD000E878622873D1B088FFF7BDFB53EC1A2B7B
:100DE000FFF74AFB53EC1B2BFFF7D4FAFFF7ECFBA2
:100DF0002862FFF7D6FBB0EE48AAF0EE68AA53ECE3
:100E00001A2BFFF7C7FA41EC180B686AFFF7C9FB0A
:100E100053EC192BFFF7BEFA53EC182BFFF713FA1C
:100E2000FFF7D2FB08EE900A40F2E731C5ED0A8ADF
:100E3000C5ED098AF0884843B0FBF7F0401C80B24A
:100E40006881FFF788FB53EC1A2BFFF7A3FA41ECFC
:100E50001A0BA889FFF77FFB53EC192BFFF79AFABF
:100E600053EC1A2BFFF7EFF9FFF782FB80B2E88112
:100E7000A88100EBC0004100B8FBF1F0401E2449FE
:100E800080B268820860104D1E4E002460352836FE
:100E900035F8140000EE100AB8EE400A20EE280AD9
:100EA00010EE100AFFF77DFB53EC1B2BFFF7E4FA63
:100EB000FFF75EFB26F81400641C112CE8DDBDEC86
:100EC000108BBDE8F0870000000000209A999999E6
:100ED0009999B93FCDCCCCCCCCCCEC3F40420F0063
:100EE0000000000000FEAF40000000000000F83FDE
:100EF000001000407A008BFCFA210940000000003D
:100F000000002440F4010020000000000000084020
:100F10002C1400407047704770B5044600680168A3
:100F20004268C1F34001C2F3401251B34AB3216C8D
:100F3000C90603D4216C41F400712164816811F069
:100F4000405F17D1217EA9B9C16A11F4700F02D098
:100F5000816849050ED4416821F020014160206C70
:100F600020F480702064206CC00403D4206C40F016
:100F7000010020642046FFF77BFE21686FF012001D
:100F80000860206801684268C1F38001C2F3C012A2
:100F900089B382B3216CC90603D4216C41F400519A
:100FA0002164816811F4401F1ED1816B11F4401F30
:100FB00002D08168490517D44168490514D4816875
:100FC00011F0405F10D1217E71B9416821F080019C
:100FD0004160206C20F480502064206CC00503D454
:100FE000206C40F0010020642046FFF799FD216845
:100FF0006FF00C00086020680168426811F0010F72
:10100000C2F380120ED06AB10068C0070AD0206C0B
:1010100040F480302064204600F046F821686FF0EC
:1010200001000860206801684268C1F34011C2F302
:10103000806200290DD0002A0BD0616C41F00201C2
:1010400061646FF0200505602046FFF764FF2068AB
:10105000056070BD70B504004FF0000503D0206C32
:10106000002610B107E0012070BD204600F01EF8F8
:10107000666484F83C60206CC00610D4206C20F4B8
:10108000885040F0020020642046FFF70FFC6664A1
:10109000206C20F0020040F00100206400E00125F7
:1010A00084F83C60284670BD7047000070B586B07B
:1010B000064614216846FFF7BBF82149306888428C
:1010C0003CD120480025016841F48071016000682E
:1010D00000F4807005901B481438016841F001014C
:1010E00001600068694600F0010005900F20009043
:1010F0000320CDE90105144800F05EFB144C1348B1
:10110000C4E900050015A560C4E903504000606112
:101110008000A0614011C4E907052046656200F027
:10112000A9FA08B1FFF7FBFCB463002211461220B4
:10113000A66300F08BFC122000F07AFC06B070BDB4
:101140000020014044380240000002401064024088
:1011500070020020F8B50E4600210446009190F878
:101160003C00012807D0012084F83C0020688368F7
:10117000DB0702D011E00220F8BD836843F00103D1
:1011800083603748374B0068B0FBF3F000EB40005A
:1011900000E0401E00900028FBD120688368DB0738
:1011A0005CD0236C40F20165AB4343F4807323644D
:1011B0004068400505D5206C20F4005040F4805074
:1011C0002064206CC00404D5606C20F006006064CC
:1011D00000E0616484F83C10A16B2448224DC86390
:1011E000A16B23480864A16B2248C86421686FF092
:1011F000220008602068416841F0806141602068F9
:10120000816841F4807181602168134632464C3117
:10121000A06B00F099FA68681749C006206806D0EC
:1012200088421BD1816811F0405F13D016E08842DC
:10123000F8D0124A904203D1D1F80423D206F1D05B
:101240000F4A90420AD1D1F8041301F01F0110296E
:10125000E8D303E0816841F0804181600020F8BD5F
:101260009000002040420F000023014011080008B8
:10127000950800087F080008002001400021014077
:101280000022014070477047704770B54379012BC9
:101290001AD0012646710223037105682C6840F6B6
:1012A000FE7393409C43D1E900310B4393402343A9
:1012B0002B6001680B68C0249440A3430B60067147
:1012C00000214171084670BD022070BD7047704713
:1012D000704770B5040003D02079002510B105E0F7
:1012E000012070BD6571204600F008F802202071D1
:1012F000256101202071002070BD00002DE9F04F14
:1013000087B0064614216846FEF792FF2B493068E5
:1013100088424FD12A480025016841F00051016000
:10132000006800F00050059025481038016841F031
:10133000010101600068694600F00100059030205D
:1013400000900320CDE901051E4800F035FA1F4C3E
:101350001D484FF060674FF0400884E88101001598
:10136000C4E903504FF4807BC4E907B54FF400692A
:101370004FF4005A6562C4E9059A204600F07AF9F4
:1013800008B1FFF7CCFBB460A6630F48104C1830CF
:1013900084E881010015C4E90350C4E907B565621A
:1013A000C4E9059A204600F065F908B1FFF7B7FBDC
:1013B000F460A66307B0BDE8F08F00000074004041
:1013C000403802400000024088600240D002002005
:1013D000300300202DE9F04104460D46174661799F
:1013E00000220698012920D0012666710221217170
:1013F000F5B1D4F80CC03149CCF83C10D4F80CC08D
:101400002F49CCF84010D4F80CC02E49CCF84C1021
:101410002168D1F800C04CF0805CC1F800C090B3E6
:10142000042834D0082837D134E00220BDE8F08108
:10143000D4F808C02449CCF83C10D4F808C023499B
:10144000CCF84010D4F808C02149CCF84C102168E1
:10145000D1F800C04CF4805CC1F800C020B1042871
:1014600005D0082808D105E02268083204E0226887
:101470000C3201E0226810322068016841F400510A
:101480000160A0680EE0FFE72268143204E02268E1
:10149000183201E022681C322068016841F00051D6
:1014A0000160E068394600F04FF920680168AE40FD
:1014B0003143016000206071B8E70000E7090008CF
:1014C000310A00080F0A0008D7090008270A000897
:1014D000F70900082DE9F84304464FF00009CDF85C
:1014E000009063484FF41651A56D0068B0FBF1F70A
:1014F0002E6894F85C10082000FA01F131420FD0F8
:1015000021680A6852070BD50A6822F004020A60B3
:1015100094F85C108840A860606D40F00100606540
:1015200094F85C104FF0010808FA01F0304208D03E
:1015300021684969090604D5A860606D40F0020081
:10154000606594F85C1004208840304208D021681F
:101550000968890704D5A860606D40F004006065E3
:1015600094F85C1010208840304218D02168096837
:10157000090714D5A86020680168490304D50068EC
:10158000000308D5A16C07E00168C90503D4016810
:1015900021F008010160216C09B12046884794F8C8
:1015A0005C1020208840304231D021680968C9068B
:1015B0002DD5A86094F8350005282068016806D06C
:1015C000490347D5006800031DD4616C1CE021F07D
:1015D000160101602068416921F080014161206CA1
:1015E00008B9A06C20B12068016821F008010160F1
:1015F00094F85C103F208840A86084F8349084F808
:101600003580216D1FE0E16B09B120468847606D90
:1016100000282BD0606DC00714D0052084F8350059
:101620002068016821F0010101600098401C0090D1
:10163000B84203D820680068C007F6D184F8349017
:1016400084F83580E16C002910D001B02046BDE857
:10165000F04308470168C905D5D4016821F010019D
:10166000016084F8349084F83580CCE7BDE8F883D5
:10167000900000202DE9F041044600F079F906467B
:101680005CB1002584F83450022084F835002068CD
:10169000016821F0010101600DE00120BDE8F08149
:1016A00000F066F9801B052805D92020606503201D
:1016B00084F83500F2E720680068C007F0D122689E
:1016C000116820480140D4E901031843D4E90336E6
:1016D0003343184363691843A3691843E369184304
:1016E000236A18430843616A042903D1D4E90B1320
:1016F00019430843106020684069666A20F00701BA
:1017000030460E43012704280CD1A06A0643E06A44
:1017100040B12046FFF7C4F920B14020606584F84D
:101720003570BAE7206846612046FFF7A5F994F8BE
:101730005C203F2191408160656584F83570002010
:10174000ACE700003F8010F02DE9F0410446866DC3
:1017500090F83400002501280DD0012084F83400D1
:1017600094F835700020012F07D084F8340002254A
:101770002846BDE8F0810220FBE7022784F8357097
:1017800060652046FFF7B6F994F85C103F2088406A
:10179000B0602068016841F016010160206C20B142
:1017A0002068016841F0080101602068016841F08B
:1017B00001010160DCE700002DE9F84F00224FF045
:1017C000010803254FF00F0E0B6808FA02F42340BE
:1017D000A3426ED14E68012E05D0022E03D0112EE9
:1017E00001D0122E12D186684FEA420C05FA0CF78E
:1017F000BE43CF6807FA0CF7374387604668A643B5
:101800000C79C4F30014944034434460C668570014
:1018100005FA07FC8C6826EA0C06BC403443C46019
:101820004C68022C01D0122C13D1D40800EB840494
:10183000A346D4F8209054074FEAD46A0EFA0AF669
:1018400029EA06090E6906FA0AF646EA0906CBF8FD
:10185000206006680C7926EA0C0604F00304BC40FC
:10186000344304604C68E40065D5364C266846F481
:1018700080462660246822F0030604F48044009425
:10188000314C3444A446D4F808489607370F0EFA72
:1018900007F6B4432D4EB04201D1002624E02C4E71
:1018A000B04201D101261FE02A4EB04202D10226E9
:1018B0001AE040E0284EB04201D1032614E0274E42
:1018C000B04201D104260FE0254EB04201D10526D9
:1018D0000AE0244EB04201D1062605E0224EB04275
:1018E00001D1072600E00826BE402643CCF8086850
:1018F0001E4E34684F689C43FF0300D51C43346080
:101900001A4C241D26684F689E43BF0300D51E4312
:101910002660164E083634684F689C43FF0200D597
:101920001C433460114E0C3634684F689C43BF0230
:1019300000D51C433460521C102AFFF445AFBDE8AB
:10194000F88F00004438024000300140000002409F
:101950000004024000080240000C02400010024057
:101960000014024000180240001C0240003C0140EC
:1019700001488068704700008400002002488168A8
:101980000278114481607047840000200B4810B534
:10199000016841F400710160016841F480610160F7
:1019A000016841F480710160032000F06FF80020AD
:1019B00000F006F800F024F8002010BD003C0240C2
:1019C00070B50D4D04464FF47A712878B1FBF0F0F4
:1019D0000A490968B1FBF0F000F002FB48B9102C8D
:1019E00007D200222146501E00F030F800206C6023
:1019F00070BD012070BD0000840000209000002018
:101A00000A4808B5016841F480410160006800F4AB
:101A1000804000900548001F016841F0805101603E
:101A2000006800F08050009008BD0000443802407B
:101A3000002809DB00F01F020121914040098000CD
:101A400000F1E020C0F8001170470000F0B40E4B28
:101A50001B680C46C3F30223C3F10705042D00D90C
:101A60000425191D072901D2002300E0DB1E0126F1
:101A700006FA05F1491E214099409E40761E164007
:101A80003143F0BC01F0C9B90CED00E0064900F0AB
:101A9000070208684FF6FF03184040EA0220034A95
:101AA00010430860704700000CED00E00000FA05EC
:101AB0002DE9F0470E46050065D0DFF81481D8F80F
:101AC0000000F7B200F00F00B04207D288F80070B3
:101AD000D8F8000000F00F00B04254D128683D4C07
:101AE000810712D5400703D5206840F4E0502060FC
:101AF0002878000703D5206840F460402060206803
:101B0000A96820F0F000084320602878C0072DD095
:101B1000304968680839012812D0022813D00328F8
:101B200011D00968890700292DDA216821F0030105
:101B300001432160FFF71CFF814641F2883A0EE025
:101B400009688903EFE709688901ECE7FFF710FFEF
:101B5000A0EB0901514502D90320BDE8F0872068B8
:101B6000696800F00C00B0EB810FEFD1D8F80010DD
:101B7000404601F00F01B14207D90770006800F03C
:101B80000F00B04201D00120E7E72878400705D5D3
:101B90002068E96820F4E0500843206028780007B6
:101BA00006D52068296920F4604040EAC100206021
:101BB00000F038F82168084AC1F30311515CC840AD
:101BC0000649086006480068FFF7FAFE0020C4E7EF
:101BD000003C024008380240F03800089000002025
:101BE000880000200448054900680968044AC1F3D8
:101BF0008221515CC84070479000002008380240A4
:101C0000003900080448054900680968044AC1F31E
:101C10004231515CC84070479000002008380240B3
:101C200000390008154810B5006810F00C0214487F
:101C300013D04110042A0FD0082A0ED10F4C241FB4
:101C40002268236802F03F025B0207D52068C0F3D8
:101C50008810A0FB010106E0084610BD2168C1F311
:101C60008811A1FB00010023FEF7AAFA2168C1F345
:101C70000141491C4900B0FBF1F010BD0838024099
:101C80000024F4002DE9F84F040076D02078DFF826
:101C900038A3CE4DC00749D0DAF800105046C1F342
:101CA0008101012908D00068C0F3810002280AD10F
:101CB000281D0068400206D52868800336D5606874
:101CC0000028E2D032E06068B0F5803F10D0B0F577
:101CD000A02F286810D020F480302860286820F4D5
:101CE000802028606068A0B1FFF742FE06460CE045
:101CF000286840F48030F4E740F480202860F7E75B
:101D0000FFF736FE801B642873D828688003F7D558
:101D10000CE0FFF72DFE064605E000BFFFF728FEAA
:101D2000801B6428F0D828688003F7D42078DFF877
:101D3000A08280074FF000093ED5DAF80010504627
:101D400011F00C0F09D00068C0F3810002280BD1FC
:101D50009D48001F0068400206D42868800715D5FA
:101D6000E068012809D111E0E068B8B10120C8F8A5
:101D70000000FFF7FDFD064605E020E1FFF7F8FD56
:101D8000801B0228C0D828688007F7D528682169F9
:101D900020F0F80040EAC10028600DE0C8F800908B
:101DA000FFF7E6FD064604E0FFF7E2FD801B022890
:101DB0001FD828688007F7D42078000722D5824EE4
:101DC000844861696C3671B101210160FFF7D0FD73
:101DD000074604E0FFF7CCFDC01B022809D8306895
:101DE0008007F7D50EE0C0F80090FFF7C1FD074669
:101DF00005E082E0FFF7BCFDC01B02287DD83068FB
:101E00008007F7D42078400768D5DFF8BCB10027F9
:101E10000BF1380BDBF80000C0000BD4DBF800102E
:101E200041F08051CBF80010DBF80000012700F0F2
:101E300080500090684E3068C00510D4306840F47F
:101E400080703060FFF794FD009005E0FFF790FD93
:101E50000099401A022850D83068C005F6D55A4E6D
:101E6000A068683601280FD00528306810D020F00F
:101E700001003060306820F004003060A068B8B124
:101E8000FFF776FD00900FE0306840F00100F4E7C6
:101E900040F004003060F7E7FFF76AFD0099411A4F
:101EA00041F28830814266D830688007F4D50EE070
:101EB000FFF75EFD009007E0FFF75AFD0099411A19
:101EC00041F28830814256D830688007F4D42FB16F
:101ED000DBF8001021F08051CBF80010A069D0B3DE
:101EE000DAF800205146C2F38102022A4AD00228C1
:101EF000484607D0C8F8600000E03CE0FFF738FD36
:101F000004463BE04746C8F86000FFF731FD06464F
:101F100005E000BFFFF72CFD801B02282BD82868A6
:101F20008001F7D4D4E907010843A16A2B4A490884
:101F300002EB0141626A41EA8211084394F82C10D5
:101F400040EA01612048001F016001203866FFF768
:101F50000FFD044605E034E0FFF70AFD001B0228F0
:101F600009D828688001F7D52BE000BFFFF700FDF6
:101F7000001B022802D90320BDE8F88F28688001E1
:101F8000F4D41EE00128F7D00868E26900F480016B
:101F9000914214D1226A00F03F0191420FD147F6DD
:101FA000C071626A0140914209D1A26A00F44031D5
:101FB000914204D1E16A00F07060884201D00120B2
:101FC000DAE70020D8E70000083802400038024075
:101FD00000004742800E4742007000400000FFFFB3
:101FE00010B5401EB0F1807F01D3012010BD4FF02D
:101FF000E02460610F21601700F00FFF0020A06156
:1020000007202061002010BD7047704770B590F820
:102010003C20012A32D0012480F83C40022280F882
:102020003D2003685A689D6822F070060A683243B2
:102030005A60134B02689A4214D0B2F1804F11D00B
:10204000104B9A420ED0104B9A420BD00F4B9A4233
:1020500008D00F4B9A4205D00E4B9A4202D00E4B3D
:102060009A4204D1496825F080031943916080F8B1
:102070003D40002180F83C10084670BD022070BD34
:10208000000001400004004000080040000C004037
:1020900000040140004001400018004010B5040059
:1020A00003D094F83D0010B107E0012010BD0020DE
:1020B00084F83C00204600F00DF8022084F83D0032
:1020C000211D206800F0E8FC012084F83D0000207C
:1020D00010BD000008B5174A01681748914211D198
:1020E000016841F0020101600068002200F0020076
:1020F000009011461D20FFF7A9FCBDE808401D20F7
:10210000FFF796BC0D4A914207D1016841F01001DA
:102110000160006800F0100009E0094A914207D10F
:10212000016841F020010160006800F0200000908B
:1021300008BD00000004004040380240001000408C
:1021400000140040022180F83D1001688A6802F006
:102150000702062A03D00A6842F001020A60012140
:1021600080F83D10002070470168CA6842F0010203
:10217000CA600068816801F00701062903D0016880
:1021800041F0010101600020704770B5044690F8ED
:102190003C00012817D0012584F83C50022084F827
:1021A0003D002068826822F0770222F47F4282603C
:1021B0000868502830D00DDC20284DD005DC98B3BD
:1021C00010283BD148E0022070BD302844D0402880
:1021D00034D139E0602828D0702806D0B0F5805F6F
:1021E0002CD0B0F5005F29D10AE0CB68D1E90121FC
:1021F000206800F0B5FC2068816841F0770109E0B3
:10220000CB68D1E90121206800F0AAFC2068816830
:1022100041F48041816011E0CA684968206800F09B
:10222000B1FC5021206807E016E0CA6849682068C0
:1022300000F0B9FC6021206800F09CFC84F83D505F
:10224000002084F83C0070BDCA684968206800F02E
:1022500099FC40212068EFE7226801461046EBE731
:10226000704770B50446006801694FF00005C94326
:10227000890715D4C168C943890711D4E91E0161D2
:1022800001202077206880698007204602D0FFF770
:10229000E7FF04E000F098F8204600F096F8257774
:1022A00020680169C943490717D4C168C943490770
:1022B00013D46FF004010161022020772068806947
:1022C00010F4407F204602D0FFF7CAFF04E000F080
:1022D0007BF8204600F079F8257720680169C9432A
:1022E000090716D4C168C943090712D46FF0080161
:1022F0000161042020772068C0698007204602D051
:10230000FFF7AEFF04E000F05FF8204600F05DF854
:10231000257720680169C943C90617D4C168C94334
:10232000C90613D46FF010010161082020772068DE
:10233000C06910F4407F204602D0FFF791FF04E00F
:1023400000F042F8204600F040F825772068016947
:10235000C943C90708D1C168C943C90704D1891E47
:102360000161204600F032F820680169C94309067E
:1023700009D4C168C943090605D46FF08001016121
:102380002046FFF741FE20680169C943490609D488
:10239000C168C943490605D46FF040010161204678
:1023A00000F052F820680169C94389060BD4C1685E
:1023B000C943890607D46FF0200101612046BDE8BA
:1023C0007040FFF722BE70BD704770471A49006821
:1023D000096888422FD11949087872282BD188784A
:1023E000722828D11648612202706B2242706E2238
:1023F00082706822C2706F22027142718271C27152
:1024000091ED070A80ED020A0A8900EE102AB8EE63
:10241000400A80ED030A91ED0A0A80ED040AC98999
:1024200000EE101AB8EE400A80ED050A0548016872
:1024300041F0800101607047F4000020000000209E
:1024400040020020144800407047704770B50400F7
:1024500004D094F83900002510B106E0012070BDC9
:1024600084F83850204600F023F8242084F83900FE
:102470002068C16821F40051C160204600F020FCB2
:102480002068016921F4904101612068416921F0CF
:102490002A0141612068C16841F40051C160E563CF
:1024A000202084F8390084F83A00002070BD000034
:1024B0002DE9F04387B0064614216846FDF7B8FEC3
:1024C0002C493068884252D12B480025016841F4DC
:1024D00080210160006800F48020059026481038B3
:1024E000016841F0020101600068694600F00200E5
:1024F00005904FF44060009002200190012002906E
:1025000003200390072004901C48FFF755F91D4C49
:102510001B484FF000672060C4E901754FF48068E4
:10252000C4E903584FF480796561C4E9065925620E
:1025300020466562FFF79EF808B1FEF7F0FA746373
:10254000A6630F48104C3030E4E802074020A4E8AE
:1025500021010D4844F81459C4E906592562656201
:10256000FFF788F808B1FEF7DAFA3463A66307B01C
:10257000BDE8F083004800404038024000040240BB
:102580002860024090030020F0030020F8B50446C4
:1025900090F83A0020283CD1C1B3BAB394F838007F
:1025A000012836D0012084F83800A162A2850025D8
:1025B000E563222084F83A00636B1748D863636BA5
:1025C00016481864636B1648D864606B134605653B
:1025D0000846666B216802463046091DFFF7B4F8CD
:1025E000206801684168009184F83850C16841F45E
:1025F0008071C1602068416941F00101416120683A
:10260000416941F0400141610020F8BDFFE7012030
:10261000FBE70220F9E70000152C0008512C000808
:10262000CB2B00082DE9F05F654E2DED0C8B30783B
:1026300064282CD170786B2829D1B0786E2826D1E7
:10264000F078682823D13079DFF878A15E4C002734
:102650004FF072094FF0730BA6F1640172281AD083
:1026600084F800B05FF0000021F81070401C1328BF
:10267000FADD534DB0793C3D722868D084F802B041
:102680005FF0000025F81070401C1128FADDBDEC49
:102690000C8BBDE8F09F84F800907079607074280E
:1026A000E7D196ED020A84ED070A96ED030ABCEE27
:1026B000C00A10EE100A80B2208100EB8000820078
:1026C000BAFBF2F0401E414A80B22082D06200255F
:1026D0009FED3F9B9FED40AB9FED41BB9FED42CBFC
:1026E0008846E069FDF75DFF41EC180B364838304D
:1026F00030F81500FDF72FFF53EC192BFDF74AFEBC
:1027000053EC1A2BFDF7B8FE41EC100B00F098FBD0
:10271000B0EE40DAF0EE60DAE069FDF742FF53EC2C
:102720001D2BFDF737FE53EC182BFDF78CFD53ECFA
:102730001B2BFDF7A1FE53EC1C2BFDF72BFEFDF729
:1027400017FF28F815006D1C132DCADD91E784F8DA
:102750000290F079E070742899D196ED048A84EDA6
:102760000A8A96ED050ABCEEC00A10EE100A80B285
:10277000E08100EBC0004100BAFBF1F0401E1C49B3
:1027800080B260820860104E00249FED1A9B603674
:1027900036F8140000EE100AB8EE400A20EE080ADF
:1027A00010EE100AFDF7FDFE53EC192BFDF764FE49
:1027B000FDF7DEFE25F81400641C112CE8DD66E749
:1027C0005802002040420F0000000020001000408E
:1027D0007A008BFCFA210940000000000000244030
:1027E00000000000000008400000000000FEAF40B4
:1027F0002C140040000000000000F83F704700006B
:1028000070B5044690F83900202830D169B362B31E
:1028100094F8380001282AD0012084F83800216279
:10282000A284E2840025E563212084F83900236B2B
:102830001048D863236B10481864236B0F48D86482
:10284000206B134605652668206B321DFEF77CFF62
:1028500021686FF04000086084F8385020684169B2
:1028600041F080014161002070BD012070BD022057
:1028700070BD00005B2C0008892C0008CB2B0008E1
:102880000248016821F0800101607047144800404F
:102890007047FEE77FB500241B4800940194029422
:1028A00018490394C0E90014012505618460057688
:1028B00080F820401549C0E90A140426C661C460A6
:1028C00080F830504561FEF7C5FB07200094CDE944
:1028D000015069460C48FEF725F90224CDE9005461
:1028E00069460948FEF71EF9009403246946064824
:1028F0000194FEF717F9CDE9004669460248FEF754
:1029000011F97FBD00200140980000200100000F58
:102910001D4808B5016841F480010160016801F4B7
:1029200080010091016841F40011016000680022FB
:1029300000F40010009011460C20FFF787F80C20DF
:10294000FFF776F8002211460E20FFF77FF80E20E1
:10295000FFF76EF8002211461020FFF777F81020DD
:10296000FFF766F8002211461120FFF76FF81120DB
:10297000FFF75EF8002211463820FFF767F8BDE840
:1029800008403820FFF754B83038024010B586B000
:1029900000241248009401940294039404940E4974
:1029A0000594016042F2CF01C0E9011440F2CF71F9
:1029B000C0E903148461FFF771FB4FF4805000906D
:1029C00069460648FFF7E1FB049404A9034805940F
:1029D000FFF71CFB06B010BD00040040F40000200F
:1029E000FEE7704770477047FEF7C8BF30B593B039
:1029F00030216846FDF71CFC14210CA8FDF718FCDB
:102A000019480025016841F080510160006800F01C
:102A1000805011901548016841F4804101600068C0
:102A2000022400F4804011900120009000040190E5
:102A30008001CDE90640082008904FF4A870CDE948
:102A4000090407200B906846FFF71CF90CA90F201A
:102A500081E831004FF4A0500F90109005210CA890
:102A6000FFF726F813B030BD403802400070004038
:102A70000548016841F47001016003494FF00060AE
:102A8000803908607047000088ED00E00148FFF7DA
:102A9000E8BB0000F4000020F0B50268254C264D8C
:102AA000264E274F274B4FF0804CA04209D060455F
:102AB00007D0A84205D0B04203D0B84201D0984216
:102AC00004D122F0700E4A6842EA0E02A0421BD0E6
:102AD000604519D0A84217D0B04215D0B84213D0E3
:102AE000984211D0184DA8420ED0184DA8420BD0D4
:102AF000174DA84208D0174DA84205D0164DA84240
:102B000002D0164DA84203D122F44075CA682A4368
:102B10004D6922F080022A4302608A68C2620A6814
:102B20008262A04201D0984201D10969016301216A
:102B30004161F0BD00000140000400400008004079
:102B4000000C0040000401400040014000440140EE
:102B50000048014000180040001C004000200040D8
:102B600010B5846842EA032224F47F440A432243D6
:102B7000826010BD826822F070020A4342F00701B1
:102B80008160704710B5036A046A24F0010404628E
:102B9000846924F0F00444EA021423F00A020A4390
:102BA0008461026210BD10B5036A23F01003036252
:102BB0008369046A23F4704343EA023224F0A003D9
:102BC00043EA01118261016210BD70B5846B206817
:102BD000406994F83910C0F3C0100025212904D1B0
:102BE00018B1E584204600F062F82068406994F846
:102BF0003A10C0F38010222904D118B1E58520468F
:102C000000F047F8E06B40F01000E0632046FFF76B
:102C10001CFC70BD10B50146806B09680968C905C8
:102C200013D40021C1850168CA6822F48072CA6089
:102C300001684A6922F001024A6101684A6922F08A
:102C400040024A61202180F83A10FFF7EBFC10BDEA
:102C500010B5806BFFF7D2FD10BD10B50146806B3B
:102C600009680968C9050CD40021C18401684A6952
:102C700022F080024A610068C16841F04001C160F1
:102C800010BDFFF7FDFD10BD10B5806BFFF700FE16
:102C900010BD0168CA6822F49072CA6001684A696E
:102CA00022F001024A61202180F83A107047016841
:102CB000CA6822F0C002CA60202180F8391070472B
:102CC0002DE9F041044600680169E26821F44051B1
:102CD000114301612169A068E269084361691143F8
:102CE00008432168CA6849F20C639A430243CA60E8
:102CF00020684169A26921F4407111434161E06992
:102D0000192764253226B0F5004F354A3549206829
:102D10004FF0000806D0884201D0904236D1FEF72D
:102D200071FF35E0884201D0904202D1FEF76AFF80
:102D300001E0FEF757FF61684A18A0FB070148EB66
:102D40000803FDF73DFA0146B0FBF5F00201B1FBC7
:102D5000F5F06FF01803584301EB800006EBC0005C
:102D6000B0FBF5F000F0F80002EB4002B1FBF5F02B
:102D7000584301EB800006EBC000B0FBF5F000F01B
:102D80000700216810448860BDE8F081FEF72AFF43
:102D900061688B0F8A00A0FB0701FDF711FA01465D
:102DA000B0FBF5F06FF01802504301EB800006EB2A
:102DB0000010B0FBF5F000F0F002B1FBF5F002EB13
:102DC0000012B1FBF5F06FF01803584301EB8000DF
:102DD00006EB0010B0FBF5F000F00F00D1E70000AB
:102DE0000014014000100140FEE703B401984100C7
:102DF000009850EAC12018BF04204A0D18BF40F0C7
:102E0000010040F2FF72B2EB515F08BF40F00200D8
:102E1000012808BF052002B070470907090E0028E5
:102E200004DB00F1E02080F80014704700F00F0090
:102E300000F1E02080F8141D704700000000000041
:102E400010B52F499FED2C1B2DED020B84B005987A
:102E500020F000408842DCBF00209DED040B32DDF5
:102E60002849884209D1049840B94FF0010000F088
:102E70006FFC00F03DFC06B010BD05DB9DED040BC2
:102E800000F02AFC06B010BD68469DED040B00F072
:102E90003BF810F0030011D0012818D09DED021B63
:102EA0009DED000B02281AD000F04AFA51EC100BED
:102EB00081F0004106B041EC100B10BD9DED021BEE
:102EC0009DED000B012000F06FFB06B010BD9DEDE5
:102ED000021B9DED000B00F033FA06B010BD01207F
:102EE00000F062FB51EC100B81F0004106B041ECA8
:102EF000100B10BD000000000000000000000000EA
:102F0000FB21E93F0000F07F2DE9F14F04462DED54
:102F1000020B2DED088B8AB09FEDE70B80ED020BC5
:102F2000139EE74826F0004585420ADC9DED120B12
:102F3000002084ED000B0AB0BDEC088B03B0BDE8A7
:102F4000F08FE0489FEDE0AB9FEDE1BBA84247DD8D
:102F5000E14F9FEDE39B9FEDE48B9DED120B53EC56
:102F60001A2B51EC100B002E1CDDFDF70DFA41EC75
:102F7000100BBD4208D053EC1B2B51EC100BFDF78E
:102F800003FAC4E900010BE053EC192B51EC100BD0
:102F9000FDF7FAF953EC182BFDF7F6F9C4E9000137
:102FA0000120C8E7FDF74FF941EC100BBD4208D0F6
:102FB00053EC1B2B51EC100BFDF745F9C4E9000154
:102FC0000BE053EC192B51EC100BFDF73CF953ECD3
:102FD000182BFDF738F9C4E900014FF0FF30AAE7DC
:102FE000C348A84279DB9DED120B51EC100B00F0A9
:102FF000B5FB41EC180B9FEDC00B53EC102BFDF70C
:10300000C9F99FEDBF1B53EC112BFDF71CF9FDF720
:10301000E0FB0746FDF7CCFB41EC190B53EC1A2BF8
:10302000FDF7B8F953EC182BFDF7B1F941EC180B8B
:1030300053EC1B2B51EC190BFDF7ACF9DFF8C8A2D0
:1030400041EC100B4FEA15580125FA4453EC102BB4
:1030500051EC180BFDF798F9032DC4E900013DD0A0
:10306000C1F30A5005EB4511A8EB0000113981426C
:1030700034DA0AEB051BB0EE48AA9BED000BF0EE2C
:1030800068AA53EC102B51EC190BFDF783F941ECB6
:103090001B0B51EC1A0B53EC1B2BFDF775F941EC94
:1030A000180B51EC1A0B53EC182BFDF76DF953EC80
:1030B0001B2BFDF769F99BED020B41EC1A0B53EC4E
:1030C000102B51EC190BFDF765F953EC1A2BFDF79A
:1030D0005BF941EC100B6D1CB8E70EE0002EA8BFA9
:1030E0003846BFF628AF94ED000B51EC100B81F081
:1030F0000041C4E9000178421DE7C6F3130040F423
:10310000801EC6F30A50A0F2F530471100F01F05EB
:10311000C5F12000DDF848B0089000200690079027
:103120000520EC467949002D07EB0002794408BFE1
:1031300051F8221009D051F8223001EB8201AB4046
:103140004A68089922FA01F11943A1FB0E26A1FB56
:103150000B131A449A4234BF0123002303EB0608E1
:103160000CEB8003D3E901A60E448E4234BF01214B
:10317000002192448A4411B1924502D903E092455C
:1031800001D2012100E00021C3E901A641444CF82D
:103190002010011EA0F10100C4DC029800F10050D3
:1031A000850F0298DDE903678000DDF81480FDF7E4
:1031B000FFFA41EC1A0B3046FDF7CDF99FED541B99
:1031C00053EC112BFDF7E6F841EC1B0B3846FDF7ED
:1031D000C2F99FED511B53EC112BFDF7DBF841ECCD
:1031E000180B4046FDF7B7F99FED4D1B53EC112B23
:1031F000FDF7D0F841EC190B51EC180B53EC192BDF
:10320000FDF721F853EC1B2BFDF71DF853EC1A2B9F
:10321000FDF719F8CDE90801002008909DED080B95
:1032200053EC1A2B51EC100BFDF7AEF853EC1B2BA3
:10323000FDF7AAF853EC182BFDF7A6F853EC192B61
:10324000FDF7A5F89FED381B53EC112BFDF7A2F805
:103250009FED370B41EC180B53EC102B9DED080B39
:1032600051EC100BFDF796F853EC182BFCF7EBFF25
:103270009FED310B41EC180B53EC102B9DED080B1F
:1032800051EC100BFDF786F853EC182BFCF7DBFF25
:1032900041EC100B139810F0004F06D06D4251EC2A
:1032A000100B81F0004141EC100B284684ED000B1F
:1032B00041E60000000000000000000000000000E7
:1032C000FB21E93F7CD9024000004054FB21F93F3B
:1032D0003163621A61B4D03DFB21F93F0000000068
:1032E0000000601A61B4D03D7370032E8A19A33BAD
:1032F000FB2139410000000083C8C96D305FE43F05
:10330000000000000000E03FEA080000380800006C
:10331000000000000000103E000000000000103C13
:10332000000000000000103A182D4454FB21F93D24
:103330003326A611460B113C00000054FB21F93D39
:1033400010B52DED040B2DED088B82B0B0EE419A37
:10335000F0EE619A0B9820F000449FED4BABB4F176
:10336000795F11DA9DED0A0B51EC100BFDF731FA84
:10337000002801BFB0EE4A0AF0EE6A0A02B0BDECC6
:10338000088B04BF04B010BD9DED0A0B53EC102B4D
:1033900051EC100BFCF7FEFF41EC180B3C480621EA
:1033A000B0EE480AF0EE680A784400F081F853EC79
:1033B000182B51EC100BFCF7EDFF9DED0A0B41ECC7
:1033C0001B0B53EC192B51EC100BFCF7E3FF41ECFA
:1033D000190B53EC1B2B51EC180BFCF7DBFF53ECD8
:1033E000192BFCF7D1FF9FED2C0B41EC190B53EC83
:1033F000102B51EC180BFCF7CDFF41EC100B2848BB
:10340000844210DA53EC192B51EC100BFCF7BCFF83
:1034100053EC1A2BFCF7BBFF41EC100B02B0BDECD8
:10342000088B04B010BD1F48A042BCBF9FED1E1BFF
:103430008DED001B06DBA4F500100190002000902C
:103440009DED001B51EC100B53EC112BFCF79CFF76
:103450009DED000B41EC180B53EC102B51EC1A0BAB
:10346000FCF792FF41EC1A0B53EC192B51EC180BA3
:10347000FCF78AFF53EC1A2BFCF789FF41EC100B89
:10348000CCE7000000000000000000000000F03F5A
:103490005C05000000000000000000000000E03FAC
:1034A0003333D33F0000E93F000000000000D23F6B
:1034B00070B504462DED028B4D1E00EBC500B0EE3D
:1034C000408AF0EE608A90ED000B35F0060017D0D0
:1034D00053EC182B51EC100BFCF75CFF41EC100B7C
:1034E0006D1E04EBC50090ED001B51EC100B53EC6E
:1034F000112BFCF7A8FE41EC100B35F00600E7D1CC
:10350000022D36D0042D1CD0062D1CBFBDEC028B25
:1035100070BD53EC182B51EC100BFCF73BFF94EDF6
:103520000A1B53EC112BFCF78EFE53EC182BFCF707
:1035300031FF94ED081B53EC112BFCF784FE41EC9A
:10354000100B53EC182B51EC100BFCF723FF94EDF0
:10355000061B53EC112BFCF776FE53EC182BFCF7F3
:1035600019FF94ED040B53EC102BFCF76CFE41ECAF
:10357000100B53EC182B51EC100BFCF70BFF94EDD8
:10358000021B53EC112BFCF75EFE53EC182BFCF7DF
:1035900001FF94ED001B53EC112BFCF754FEBDEC26
:1035A000028B41EC100B70BD31B504462DED040BC0
:1035B0002DED0A8BB0EE41BAF0EE61BA0B989DED9D
:1035C0000A0B20F00040B0F1795F0DDA51EC100BDE
:1035D000FFF70BFC042808BF00F09AF89DED0A0BDA
:1035E000BDEC0A8B05B030BD53EC102B51EC100B29
:1035F000FCF7D0FE41EC180B9DED0A0B53EC182B99
:1036000051EC100BFCF7C6FE41EC190B2C48B0EE48
:10361000480AF0EE680A05217844FFF749FF9FED5C
:103620002ACBB0EE40AAF0EE60AA9CB353EC1C2B60
:1036300051EC190BFCF7AEFE41EC1C0B53EC1A2BB2
:1036400051EC190BFCF7A6FE9FED210B41EC190B79
:1036500053EC102B51EC1B0BFCF79CFE53EC192B7D
:10366000FCF792FE53EC182BFCF794FE53EC1B2B4B
:10367000FCF78AFE53EC1C2BFCF786FE9DED0A1B23
:1036800053EC112BFCF783FEBDEC0A8B05B041EC2B
:10369000100B30BDFFE753EC1A2B51EC180BFCF765
:1036A00079FE53EC1C2BFCF7CEFD53EC192BFCF7E9
:1036B00071FE9DED0A1B53EC112BFCF7C4FDE3E7F3
:1036C000E403000000000000495555555555C5BF9D
:1036D000000000000000E03F10B553EC102B51EC4F
:1036E000100BFCF7B0FD41EC100B10BD000000000A
:1036F0009FED050B10B553EC102B51EC100BFCF7A4
:10370000BBFE41EC100B10BD0000000000000000EB
:103710009FED050B10B553EC102B51EC100BFCF783
:1037200039FE41EC100B10BD00000000000000103D
:1037300002E008C8121F08C1002AFAD1704770477A
:10374000002001E001C1121F002AFBD170470000D8
:1037500001490860704700009400002082B0CDE964
:10376000000121F0004001909DED000B02B051ECF2
:10377000100B70471CB5FEF709F9FFF737F95248EF
:103780000024016841F080010160016801F08001BE
:103790000091016841F001010160016801F001013F
:1037A0000091016841F002010160006800F0020030
:1037B0000090FFF7ADF8FFF76DF8454900944348D6
:1037C000019408600846FDF784FD0420CDE900045B
:1037D000002269463E48FDF758FD14200090102253
:1037E00069463B48FDF751FD394800945430019437
:1037F00009263849C66053250160C0E90154846137
:10380000FEF74CFC20273248CDE90074694654305D
:10381000FEF7FCFB2E480094943001942E49C660BC
:103820000160C0E901548461FEF738FC2848CDE905
:10383000007469469430FEF7E9FB25482749D430E7
:1038400001604FF4E131C0E901140C21C460C0E90A
:1038500004418461C461FEF7F9FDFFF797F81C4845
:1038600004221F494838FDF775FC14231D4A002126
:1038700017480094FDF7AEFD1A4A12232832102192
:1038800013480094FDF7A6FD164918226431A1F1F2
:10389000A400FEF77BFE134918224C31A1F18C00E5
:1038A000FEF7AEFF0A481430FEF75EFC08485430BD
:1038B000FEF748FC0B488038FEF744FC0849182006
:1038C0003039C862FDE70000303802400074004023
:1038D000E0000020001000400014004000480040BC
:1038E00030000020F401002000061016000610161B
:1038F00000000000000000000102030406070809A0
:1039000000000000010203044C5555555555A53FD4
:103910007751C1166CC156BF9015CB19A001FA3E64
:10392000AD529C804F7E92BEC4B1B4BD9EEE213E8E
:10393000D43888BEE9FAA8BD00004054FB21F93F05
:103940003163621A61B4D03D0000601A61B4D03DA9
:103950007370032E8A19A33B0000002E8A19A33B23
:10396000C14920259A837B39000000000000000037
:103970006E83F9A22915444ED15727FCC0DD34F5DA
:10398000999562DB4190433CAB6351FE61C5BBDE60
:103990003A6E24B7E0D24D42EA2E49061C92D10974
:1039A0001CEB1DFE3EA729B1F53582E88444BB2EF1
:1039B00026709CE9417E5FB439D69139F43953833E
:1039C0008B5F849C3B28F9BDFF97F81F0F9805DE9D
:1039D0008B112FEF1F6D0A5ACF7E366DB709CB279B
:1039E000663F464F2DEA5F9EC7BA27757BF1E5EB30
:1039F000F739073DEA92528AB15FFB6B085D8D1F74
:103A0000A6F810111111813FD561C119A0012ABF7B
:103A10007DFEB157E31DC73EEB9C2B8AE6E55ABEFF
:103A20007CD5CF5A3AD9E53D483A0008000000203D
:103A30009800000030370008E03A000898000020A5
:103A4000B80700004037000873627362000000008E
:103A50000000000000000000000000000000000066
:103A60000000000000000000000000000000000056
:103A70000000000000000000000000000000000046
:103A8000000001000200030004000500060007001A
:103A9000080009000A000B000C000D000E000F00CA
:103AA00010001100120013000000C7018E0355051D
:103AB0001C07E308AA0A710C380EFF0F380E710CB0
:103AC000AA0AE3081C0755058E03C7010100000080
:103AD00010000000000000000024F40000000000BE
:040000050800018965
:00000001FF
